{
  "_format": "hh-sol-artifact-1",
  "contractName": "Faucet",
  "sourceName": "contracts/Faucet.sol",
  "abi": [
    {
      "inputs": [],
      "stateMutability": "nonpayable",
      "type": "constructor"
    },
    {
      "inputs": [],
      "name": "AMOUNT",
      "outputs": [
        {
          "internalType": "uint256",
          "name": "",
          "type": "uint256"
        }
      ],
      "stateMutability": "view",
      "type": "function"
    },
    {
      "inputs": [],
      "name": "WITHDRAWAL_INTERVAL",
      "outputs": [
        {
          "internalType": "uint256",
          "name": "",
          "type": "uint256"
        }
      ],
      "stateMutability": "view",
      "type": "function"
    },
    {
      "inputs": [],
      "name": "getBalance",
      "outputs": [
        {
          "internalType": "uint256",
          "name": "",
          "type": "uint256"
        }
      ],
      "stateMutability": "view",
      "type": "function"
    },
    {
      "inputs": [
        {
          "internalType": "address",
          "name": "",
          "type": "address"
        }
      ],
      "name": "lastWithdrawal",
      "outputs": [
        {
          "internalType": "uint256",
          "name": "",
          "type": "uint256"
        }
      ],
      "stateMutability": "view",
      "type": "function"
    },
    {
      "inputs": [],
      "name": "owner",
      "outputs": [
        {
          "internalType": "address payable",
          "name": "",
          "type": "address"
        }
      ],
      "stateMutability": "view",
      "type": "function"
    },
    {
      "inputs": [],
      "name": "withdraw",
      "outputs": [],
      "stateMutability": "nonpayable",
      "type": "function"
    },
    {
      "stateMutability": "payable",
      "type": "receive"
    }
  ],
  "bytecode": "0x6080604052348015600f57600080fd5b50336000806101000a81548173ffffffffffffffffffffffffffffffffffffffff021916908373ffffffffffffffffffffffffffffffffffffffff1602179055506105d08061005f6000396000f3fe6080604052600436106100595760003560e01c806312065fe0146100655780633ccfd60b146100905780634c64c030146100a75780638da5cb5b146100d2578063d1789176146100fd578063ebe6c9ff1461012857610060565b3661006057005b600080fd5b34801561007157600080fd5b5061007a610165565b6040516100879190610341565b60405180910390f35b34801561009c57600080fd5b506100a561016d565b005b3480156100b357600080fd5b506100bc6102db565b6040516100c99190610341565b60405180910390f35b3480156100de57600080fd5b506100e76102e0565b6040516100f4919061039d565b60405180910390f35b34801561010957600080fd5b50610112610304565b60405161011f9190610341565b60405180910390f35b34801561013457600080fd5b5061014f600480360381019061014a91906103fb565b610310565b60405161015c9190610341565b60405180910390f35b600047905090565b67016345785d8a00004710156101b8576040517f08c379a00000000000000000000000000000000000000000000000000000000081526004016101af90610485565b60405180910390fd5b603c600160003373ffffffffffffffffffffffffffffffffffffffff1673ffffffffffffffffffffffffffffffffffffffff1681526020019081526020016000205461020491906104d4565b421015610246576040517f08c379a000000000000000000000000000000000000000000000000000000000815260040161023d9061057a565b60405180910390fd5b42600160003373ffffffffffffffffffffffffffffffffffffffff1673ffffffffffffffffffffffffffffffffffffffff168152602001908152602001600020819055503373ffffffffffffffffffffffffffffffffffffffff166108fc67016345785d8a00009081150290604051600060405180830381858888f193505050501580156102d8573d6000803e3d6000fd5b50565b603c81565b60008054906101000a900473ffffffffffffffffffffffffffffffffffffffff1681565b67016345785d8a000081565b60016020528060005260406000206000915090505481565b6000819050919050565b61033b81610328565b82525050565b60006020820190506103566000830184610332565b92915050565b600073ffffffffffffffffffffffffffffffffffffffff82169050919050565b60006103878261035c565b9050919050565b6103978161037c565b82525050565b60006020820190506103b2600083018461038e565b92915050565b600080fd5b60006103c88261035c565b9050919050565b6103d8816103bd565b81146103e357600080fd5b50565b6000813590506103f5816103cf565b92915050565b600060208284031215610411576104106103b8565b5b600061041f848285016103e6565b91505092915050565b600082825260208201905092915050565b7f496e73756666696369656e742066756e647320696e2066617563657400000000600082015250565b600061046f601c83610428565b915061047a82610439565b602082019050919050565b6000602082019050818103600083015261049e81610462565b9050919050565b7f4e487b7100000000000000000000000000000000000000000000000000000000600052601160045260246000fd5b60006104df82610328565b91506104ea83610328565b9250828201905080821115610502576105016104a5565b5b92915050565b7f596f75206d7573742077616974206265666f72652072657175657374696e672060008201527f616761696e000000000000000000000000000000000000000000000000000000602082015250565b6000610564602583610428565b915061056f82610508565b604082019050919050565b6000602082019050818103600083015261059381610557565b905091905056fea2646970667358221220073c05cf1162f06c3ba56971c4eccab15b43df7e85c40a32d6e9d9e1a1a77a8364736f6c634300081c0033",
  "linkReferences": {},
  "deployedLinkReferences": {}
}